{
  "_format": "hh-sol-artifact-1",
  "contractName": "ToDoList",
  "sourceName": "contracts/ToDoList.sol",
  "abi": [
    {
      "inputs": [
        {
          "internalType": "string",
          "name": "_content",
          "type": "string"
        }
      ],
      "name": "addTask",
      "outputs": [],
      "stateMutability": "nonpayable",
      "type": "function"
    },
    {
      "inputs": [
        {
          "internalType": "uint256",
          "name": "index",
          "type": "uint256"
        }
      ],
      "name": "completeTask",
      "outputs": [],
      "stateMutability": "nonpayable",
      "type": "function"
    },
    {
      "inputs": [],
      "name": "getTasks",
      "outputs": [
        {
          "internalType": "string[]",
          "name": "contents",
          "type": "string[]"
        },
        {
          "internalType": "bool[]",
          "name": "completed",
          "type": "bool[]"
        }
      ],
      "stateMutability": "view",
      "type": "function"
    },
    {
      "inputs": [
        {
          "internalType": "address",
          "name": "",
          "type": "address"
        },
        {
          "internalType": "uint256",
          "name": "",
          "type": "uint256"
        }
      ],
      "name": "userTasks",
      "outputs": [
        {
          "internalType": "string",
          "name": "content",
          "type": "string"
        },
        {
          "internalType": "bool",
          "name": "completed",
          "type": "bool"
        }
      ],
      "stateMutability": "view",
      "type": "function"
    }
  ],
  "bytecode": "0x6080604052348015600f57600080fd5b50610f258061001f6000396000f3fe608060405234801561001057600080fd5b506004361061004c5760003560e01c806304a87e381461005157806366873a551461007057806367238562146100a1578063e1e29558146100bd575b600080fd5b6100596100d9565b604051610067929190610823565b60405180910390f35b61008a60048036038101906100859190610902565b610377565b60405161009892919061099b565b60405180910390f35b6100bb60048036038101906100b69190610b00565b61044d565b005b6100d760048036038101906100d29190610b49565b610507565b005b60608060008060003373ffffffffffffffffffffffffffffffffffffffff1673ffffffffffffffffffffffffffffffffffffffff1681526020019081526020016000208054905090508067ffffffffffffffff81111561013c5761013b6109d5565b5b60405190808252806020026020018201604052801561016f57816020015b606081526020019060019003908161015a5790505b5092508067ffffffffffffffff81111561018c5761018b6109d5565b5b6040519080825280602002602001820160405280156101ba5781602001602082028036833780820191505090505b50915060005b81811015610371576000803373ffffffffffffffffffffffffffffffffffffffff1673ffffffffffffffffffffffffffffffffffffffff168152602001908152602001600020818154811061021857610217610b76565b5b9060005260206000209060020201600001805461023490610bd4565b80601f016020809104026020016040519081016040528092919081815260200182805461026090610bd4565b80156102ad5780601f10610282576101008083540402835291602001916102ad565b820191906000526020600020905b81548152906001019060200180831161029057829003601f168201915b50505050508482815181106102c5576102c4610b76565b5b60200260200101819052506000803373ffffffffffffffffffffffffffffffffffffffff1673ffffffffffffffffffffffffffffffffffffffff16815260200190815260200160002081815481106103205761031f610b76565b5b906000526020600020906002020160010160009054906101000a900460ff1683828151811061035257610351610b76565b5b60200260200101901515908115158152505080806001019150506101c0565b50509091565b6000602052816000526040600020818154811061039357600080fd5b9060005260206000209060020201600091509150508060000180546103b790610bd4565b80601f01602080910402602001604051908101604052809291908181526020018280546103e390610bd4565b80156104305780601f1061040557610100808354040283529160200191610430565b820191906000526020600020905b81548152906001019060200180831161041357829003601f168201915b5050505050908060010160009054906101000a900460ff16905082565b6000803373ffffffffffffffffffffffffffffffffffffffff1673ffffffffffffffffffffffffffffffffffffffff168152602001908152602001600020604051806040016040528083815260200160001515815250908060018154018082558091505060019003906000526020600020906002020160009091909190915060008201518160000190816104e19190610db1565b5060208201518160010160006101000a81548160ff021916908315150217905550505050565b6000803373ffffffffffffffffffffffffffffffffffffffff1673ffffffffffffffffffffffffffffffffffffffff16815260200190815260200160002080549050811061058a576040517f08c379a000000000000000000000000000000000000000000000000000000000815260040161058190610ecf565b60405180910390fd5b60016000803373ffffffffffffffffffffffffffffffffffffffff1673ffffffffffffffffffffffffffffffffffffffff16815260200190815260200160002082815481106105dc576105db610b76565b5b906000526020600020906002020160010160006101000a81548160ff02191690831515021790555050565b600081519050919050565b600082825260208201905092915050565b6000819050602082019050919050565b600081519050919050565b600082825260208201905092915050565b60005b8381101561066d578082015181840152602081019050610652565b60008484015250505050565b6000601f19601f8301169050919050565b600061069582610633565b61069f818561063e565b93506106af81856020860161064f565b6106b881610679565b840191505092915050565b60006106cf838361068a565b905092915050565b6000602082019050919050565b60006106ef82610607565b6106f98185610612565b93508360208202850161070b85610623565b8060005b85811015610747578484038952815161072885826106c3565b9450610733836106d7565b925060208a0199505060018101905061070f565b50829750879550505050505092915050565b600081519050919050565b600082825260208201905092915050565b6000819050602082019050919050565b60008115159050919050565b61079a81610785565b82525050565b60006107ac8383610791565b60208301905092915050565b6000602082019050919050565b60006107d082610759565b6107da8185610764565b93506107e583610775565b8060005b838110156108165781516107fd88826107a0565b9750610808836107b8565b9250506001810190506107e9565b5085935050505092915050565b6000604082019050818103600083015261083d81856106e4565b9050818103602083015261085181846107c5565b90509392505050565b6000604051905090565b600080fd5b600080fd5b600073ffffffffffffffffffffffffffffffffffffffff82169050919050565b60006108998261086e565b9050919050565b6108a98161088e565b81146108b457600080fd5b50565b6000813590506108c6816108a0565b92915050565b6000819050919050565b6108df816108cc565b81146108ea57600080fd5b50565b6000813590506108fc816108d6565b92915050565b6000806040838503121561091957610918610864565b5b6000610927858286016108b7565b9250506020610938858286016108ed565b9150509250929050565b600082825260208201905092915050565b600061095e82610633565b6109688185610942565b935061097881856020860161064f565b61098181610679565b840191505092915050565b61099581610785565b82525050565b600060408201905081810360008301526109b58185610953565b90506109c4602083018461098c565b9392505050565b600080fd5b600080fd5b7f4e487b7100000000000000000000000000000000000000000000000000000000600052604160045260246000fd5b610a0d82610679565b810181811067ffffffffffffffff82111715610a2c57610a2b6109d5565b5b80604052505050565b6000610a3f61085a565b9050610a4b8282610a04565b919050565b600067ffffffffffffffff821115610a6b57610a6a6109d5565b5b610a7482610679565b9050602081019050919050565b82818337600083830152505050565b6000610aa3610a9e84610a50565b610a35565b905082815260208101848484011115610abf57610abe6109d0565b5b610aca848285610a81565b509392505050565b600082601f830112610ae757610ae66109cb565b5b8135610af7848260208601610a90565b91505092915050565b600060208284031215610b1657610b15610864565b5b600082013567ffffffffffffffff811115610b3457610b33610869565b5b610b4084828501610ad2565b91505092915050565b600060208284031215610b5f57610b5e610864565b5b6000610b6d848285016108ed565b91505092915050565b7f4e487b7100000000000000000000000000000000000000000000000000000000600052603260045260246000fd5b7f4e487b7100000000000000000000000000000000000000000000000000000000600052602260045260246000fd5b60006002820490506001821680610bec57607f821691505b602082108103610bff57610bfe610ba5565b5b50919050565b60008190508160005260206000209050919050565b60006020601f8301049050919050565b600082821b905092915050565b600060088302610c677fffffffffffffffffffffffffffffffffffffffffffffffffffffffffffffffff82610c2a565b610c718683610c2a565b95508019841693508086168417925050509392505050565b6000819050919050565b6000610cae610ca9610ca4846108cc565b610c89565b6108cc565b9050919050565b6000819050919050565b610cc883610c93565b610cdc610cd482610cb5565b848454610c37565b825550505050565b600090565b610cf1610ce4565b610cfc818484610cbf565b505050565b5b81811015610d2057610d15600082610ce9565b600181019050610d02565b5050565b601f821115610d6557610d3681610c05565b610d3f84610c1a565b81016020851015610d4e578190505b610d62610d5a85610c1a565b830182610d01565b50505b505050565b600082821c905092915050565b6000610d8860001984600802610d6a565b1980831691505092915050565b6000610da18383610d77565b9150826002028217905092915050565b610dba82610633565b67ffffffffffffffff811115610dd357610dd26109d5565b5b610ddd8254610bd4565b610de8828285610d24565b600060209050601f831160018114610e1b5760008415610e09578287015190505b610e138582610d95565b865550610e7b565b601f198416610e2986610c05565b60005b82811015610e5157848901518255600182019150602085019450602081019050610e2c565b86831015610e6e5784890151610e6a601f891682610d77565b8355505b6001600288020188555050505b505050505050565b7f496e76616c696420696e64657800000000000000000000000000000000000000600082015250565b6000610eb9600d83610942565b9150610ec482610e83565b602082019050919050565b60006020820190508181036000830152610ee881610eac565b905091905056fea2646970667358221220fe4a407cf92bef307e2f5042556663d1f58bf6f5acfebaea4e4b2f4f737ebc4e64736f6c634300081c0033",
  "linkReferences": {},
  "deployedLinkReferences": {}
}